:020000001028C6
:10000800A000030EA1000B1855200B194420210E47
:100018008300A00E200E0900031383160F308600FC
:10002800031783168901031383160030870003130F
:1000380083160030880003138316073081000313EA
:1000480083160F30950003138312B8308B00031307
:1000580083160F3096000313831281010313831252
:1000680000308600031383120030870003138312C5
:1000780000308800A201A301A401A501972042280D
:10008800031383128101A20A4C2003100B110800EC
:1000980003138312081C5128532808140800081059
:1000A800080083120313A301A40108128816081775
:1000B80088170130A300822024187E280816881289
:1000C800081788170230A300822024187E280816F3
:1000D8008816081388170430A300822024187E2865
:1000E80008168816081788130830A30082202418D9
:1000F8007E28A30188018B100B100800061C8B2892
:10010800861C8E28061D9128861D94280800231613
:1001180024140800A3162414080023172414080024
:10012800A317241408000313831223089D208700B3
:100138000800831203130301A31FA328003E231FF3
:10014800A628013EA31EA928023E231EAC28033E72
:10015800A31DAF28003E231DB228043EA31CB528CA
:0C016800083E231CB8280C3EA50008002F
:04400E00F120FF3F5F
:00000001FF
