:020000001028C6
:10000800A000030EA1000B1843200B193E20210E5F
:100018008300A00E200E0900031383160F308600FC
:1000280003178316890103138316870103138316A5
:1000380088010313831607308100031383160F30DA
:10004800950003138312B8308B00031383160F3007
:10005800960003138312810103138312860103138D
:1000680083128701031383128801A801B001B1012B
:1000780082203C288101A80AA0200B110800B101A8
:1000880008128816081788170130B0006D2031183B
:10009800692808168812081788170230B0006D20E2
:1000A8003118692808168816081388170430B00014
:1000B8006D20311869280816881608178813083023
:1000C800B0006D2031186928B00188018B100B1021
:1000D8000800061C7628861C7928061D7C28861DA3
:1000E8007F280800301631140800B01631140800B3
:1000F800301731140800B017311408003008862072
:10010800870008000301B01F8A28003E301F8D2891
:10011800013EB01E9028023E301E9328033EB01DBB
:100128009628003E301D9928043EB01C9C28083EA5
:10013800301C9F280C3E0800081CA328A52808147A
:0601480008000810080089
:04400E00F120FF3F5F
:00000001FF
