:020000001028C6
:10000800A000030EA1000B1848200B194320210E55
:100018008300A00E200E0900031383160F308600FC
:10002800031783168901031383160030870003130F
:1000380083160030880003138316073081000313EA
:1000480083160F30950003138312B8308B00031307
:1000580083160F3096000313831281010313831252
:1000680000308600031383120030870003138312C5
:1000780000308800A801B001B10187204128810122
:10008800A80AA5200B110800B10108128816081744
:1000980088170130B000722031186E2808168812AF
:1000A800081788170230B000722031186E28081619
:1000B8008816081388170430B000722031186E288B
:1000C80008168816081788130830B00072203118EF
:1000D8006E28B00188018B100B100800061C7B28C5
:1000E800861C7E28061D8128861D84280800301657
:1000F80031140800B0163114080030173114080004
:10010800B0173114080030088B208700080003015D
:10011800B01F8F28003E301F9228013EB01E952840
:10012800023E301E9828033EB01D9B28003E301D1D
:100138009E28043EB01CA128083E301CA4280C3E72
:100148000800081CA828AA28081408000810080095
:04400E00F120FF3F5F
:00000001FF
