:020000001228C4
:10000800A000030EA1003E200313831200308600D7
:100018008B10210E8300A00E200E090003138316F7
:1000280000308700031383160F30860003178316EA
:1000380089010313831600308100031383160F30E0
:1000480095000313831290308B00031383160F302F
:1000580096000313831200308700031383120030C5
:100068008600A201A301392037280313831222082E
:1000780087000800A3010313831286170617861644
:1000880006121030A20065202318080086170617EC
:10009800861206162030A20065202318080086174D
:1000A8000613861606164030A2006520231808009D
:1000B80086130617861606168030A20065202318B8
:1000C800080006186E2886187128061974288619DB
:1000D80077280800221423140800A2142314080007
:0C00E800221523140800A21523140800A0
:04400E00F120FF3F5F
:00000001FF
